:100000000C9446000C9465000C9465000C946500FB
:100010000C9465000C9465000C9465000C946500CC
:100020000C9465000C9465000C9465000C946500BC
:100030000C9465000C9465000C9465000C9485008C
:100040000C9465000C9465000C9465000C9465009C
:100050000C9465000C9465000C9465000C9465008C
:100060000C9465000C9465000C9465000C9465007C
:100070000C9465000C9465000C9465000C9465006C
:100080000C9465000C9465000C94650011241FBE4F
:10009000CFEFD0E4DEBFCDBF11E0A0E0B1E0EAE6F3
:1000A000F2E000E00BBF02C007900D92A230B10752
:1000B000D9F715E3A2E0B1E001C01D92AE38B10757
:1000C000E1F70E9475000C9433010C940000E0E805
:1000D000F0E080818160808310928500109284001E
:1000E00008951AB88FEF81B908951AB88FEF81B9C2
:1000F0008091800081608093800010928500109232
:10010000840078940E94D500FDCF1F920F920FB605
:100110000F920BB60F9211242F933F934F935F933F
:100120006F937F938F939F93AF93BF93EF93FF93BF
:100130008BB1882351F08BB1869586958093000111
:10014000809100010E941E0110C02BB1809100011E
:1001500030E0992787FD90952817390719F08BB162
:10016000882319F48FEF80930001FF91EF91BF91E5
:10017000AF919F918F917F916F915F914F913F913F
:100180002F910F900BBE0F900FBE0F901F901895E0
:1001900010928B3310928A3310928D3310928C33DD
:1001A000109260008FEF81B9089520E030E060E6A2
:1001B00070E0A0E425C0842F90E0869FF001879F27
:1001C000F00D969FF00D1124E20FF31FE657FC4F40
:1001D000808182B9808182B9808182B9808182B92F
:1001E000808182B94F5F403831F7A2B95F5F5530E7
:1001F00011F040E0E0CF2F5F3F4F2036310511F086
:1002000050E0F7CF42B90895089580918A339091D4
:100210008B3320918C3330918D330196813291054F
:1002200024F02F5F3F4F80E090E090938B338093DA
:100230008A3330938D3320938C330895E0918A3341
:10024000F0918B3320918C3330918D3394E0EE0F0D
:10025000FF1F9A95E1F7E20FF31FE257FC4C8083F2
:0A0260000E9405010895F894FFCFF5
:02026A00FF0093
:00000001FF
