:100000000C9446000C945D000C945D000C945D0013
:100010000C945D000C945D000C945D000C945D00EC
:100020000C945D000C945D000C945D000C945D00DC
:100030000C945D000C9486000C945D000C945D00A3
:100040000C945D000C945D000C945D000C945D00BC
:100050000C945D000C945D000C945D000C945D00AC
:100060000C945D000C945D000C945D000C945D009C
:100070000C945D000C945D000C945D000C945D008C
:100080000C945D000C945D000C945D0011241FBE67
:10009000CFEFD0E4DEBFCDBF11E0A0E0B1E0ECE5F2
:1000A000F1E000E00BBF02C007900D92A230B10753
:1000B000D9F70E9469000C94AC000C940000E0E8B1
:1000C000F0E080818160808310928500109284002E
:1000D00008951AB88FEF81B9809180008160809374
:1000E0008000109285001092840078940E94800015
:1000F00087FF04C082B10E948300F8CF12B8F6CF08
:100100008091000108958093000108951F920F923D
:100110000FB60F9211242F933F938F939F938BB120
:10012000882321F08BB1869586950BC02BB18091E9
:10013000000130E0992787FD90952817390719F4B9
:100140008FEF809300019F918F913F912F910F909E
:0C0150000FBE0F901F901895F894FFCF81
:02015C00FF00A2
:00000001FF
